{
  "transactions": [
    {
      "hash": "0xe432bc95f5d01de9f117915f3c5cb813a1920362330f88b9ea9f2353d3d48ee9",
      "transactionType": "CREATE",
      "contractName": "BoxV2",
      "contractAddress": "0x90db59cb19ef1554954606615d3fae8b15a9e1c6",
      "function": null,
      "arguments": null,
      "transaction": {
        "from": "0x200357f6778329a7e8a75ba0f1e01a641f3428ee",
        "gas": "0x2f676",
        "value": "0x0",
        "input": "0x608060405234801561001057600080fd5b506101bd806100206000396000f3fe608060405234801561001057600080fd5b506004361061004c5760003560e01c80632e64cec1146100515780636057361d14610067578063ca77ab651461007c578063fe4b84df14610084575b600080fd5b6000545b60405190815260200160405180910390f35b61007a610075366004610143565b610097565b005b6100556100d2565b61007a610092366004610143565b6100e5565b60008190556040518181527f93fe6d397c74fdf1402a8b72e47b68512f0510d7b98a4bc4cbdf6ac7108b3c599060200160405180910390a150565b600080546100e0908061015c565b905090565b60015460ff16156101325760405162461bcd60e51b8152602060048201526013602482015272105b1c9958591e481a5b9a5d1a585b1a5e9959606a1b604482015260640160405180910390fd5b6000556001805460ff191681179055565b60006020828403121561015557600080fd5b5035919050565b808202811582820484141761018157634e487b7160e01b600052601160045260246000fd5b9291505056fea26469706673582212202d1b5d31371c6e73cb0b0535b95a5f868c653c01af6ed28b2b8fc8dbd3b4ba3164736f6c63430008180033",
        "nonce": "0x53",
        "chainId": "0x4268"
      },
      "additionalContracts": [],
      "isFixedGasLimit": false
    },
    {
      "hash": "0x63b21cbaaf564416318a925c906eaea783a998b3de19194b318b3ce5ca33f1f7",
      "transactionType": "CALL",
      "contractName": "BoxV2",
      "contractAddress": "0x90db59cb19ef1554954606615d3fae8b15a9e1c6",
      "function": "initialize(uint256)",
      "arguments": [
        "42"
      ],
      "transaction": {
        "from": "0x200357f6778329a7e8a75ba0f1e01a641f3428ee",
        "to": "0x90db59cb19ef1554954606615d3fae8b15a9e1c6",
        "gas": "0x16323",
        "value": "0x0",
        "input": "0xfe4b84df000000000000000000000000000000000000000000000000000000000000002a",
        "nonce": "0x54",
        "chainId": "0x4268"
      },
      "additionalContracts": [],
      "isFixedGasLimit": false
    }
  ],
  "receipts": [
    {
      "status": "0x1",
      "cumulativeGasUsed": "0x1a2632",
      "logs": [],
      "logsBloom": "0x00000000000000000000000000000000000000000000000000000000000000000000000000000000000000000000000000000000000000000000000000000000000000000000000000000000000000000000000000000000000000000000000000000000000000000000000000000000000000000000000000000000000000000000000000000000000000000000000000000000000000000000000000000000000000000000000000000000000000000000000000000000000000000000000000000000000000000000000000000000000000000000000000000000000000000000000000000000000000000000000000000000000000000000000000000000",
      "type": "0x2",
      "transactionHash": "0xe432bc95f5d01de9f117915f3c5cb813a1920362330f88b9ea9f2353d3d48ee9",
      "transactionIndex": "0xb",
      "blockHash": "0x7d74e00be29d2e89d41c81fe32b94f1733999522ad3220069966da7dd0c472de",
      "blockNumber": "0x226ae9",
      "gasUsed": "0x2478d",
      "effectiveGasPrice": "0x24400169",
      "from": "0x200357f6778329a7e8a75ba0f1e01a641f3428ee",
      "to": null,
      "contractAddress": "0x90db59cb19ef1554954606615d3fae8b15a9e1c6"
    },
    {
      "status": "0x1",
      "cumulativeGasUsed": "0x1b2750",
      "logs": [],
      "logsBloom": "0x00000000000000000000000000000000000000000000000000000000000000000000000000000000000000000000000000000000000000000000000000000000000000000000000000000000000000000000000000000000000000000000000000000000000000000000000000000000000000000000000000000000000000000000000000000000000000000000000000000000000000000000000000000000000000000000000000000000000000000000000000000000000000000000000000000000000000000000000000000000000000000000000000000000000000000000000000000000000000000000000000000000000000000000000000000000",
      "type": "0x2",
      "transactionHash": "0x63b21cbaaf564416318a925c906eaea783a998b3de19194b318b3ce5ca33f1f7",
      "transactionIndex": "0xc",
      "blockHash": "0x7d74e00be29d2e89d41c81fe32b94f1733999522ad3220069966da7dd0c472de",
      "blockNumber": "0x226ae9",
      "gasUsed": "0x1011e",
      "effectiveGasPrice": "0x24400169",
      "from": "0x200357f6778329a7e8a75ba0f1e01a641f3428ee",
      "to": "0x90db59cb19ef1554954606615d3fae8b15a9e1c6",
      "contractAddress": null
    }
  ],
  "libraries": [],
  "pending": [],
  "returns": {},
  "timestamp": 1725278696,
  "chain": 17000,
  "commit": "cab87d7"
}