{
  "transactions": [
    {
      "hash": "0xda4b7a16893ada67f7f7ba40ee3bfa05094cf684410f1977de24a18ddaf743cb",
      "transactionType": "CREATE",
      "contractName": "BoxV2",
      "contractAddress": "0xdb7fc6283f62dbabc5ec33f488c1570e508f76d4",
      "function": null,
      "arguments": null,
      "transaction": {
        "from": "0x200357f6778329a7e8a75ba0f1e01a641f3428ee",
        "gas": "0x2f676",
        "value": "0x0",
        "input": "0x608060405234801561001057600080fd5b506101bd806100206000396000f3fe608060405234801561001057600080fd5b506004361061004c5760003560e01c80632e64cec1146100515780636057361d14610067578063ca77ab651461007c578063fe4b84df14610084575b600080fd5b6000545b60405190815260200160405180910390f35b61007a610075366004610143565b610097565b005b6100556100d2565b61007a610092366004610143565b6100e5565b60008190556040518181527f93fe6d397c74fdf1402a8b72e47b68512f0510d7b98a4bc4cbdf6ac7108b3c599060200160405180910390a150565b600080546100e0908061015c565b905090565b60015460ff16156101325760405162461bcd60e51b8152602060048201526013602482015272105b1c9958591e481a5b9a5d1a585b1a5e9959606a1b604482015260640160405180910390fd5b6000556001805460ff191681179055565b60006020828403121561015557600080fd5b5035919050565b808202811582820484141761018157634e487b7160e01b600052601160045260246000fd5b9291505056fea26469706673582212202d1b5d31371c6e73cb0b0535b95a5f868c653c01af6ed28b2b8fc8dbd3b4ba3164736f6c63430008180033",
        "nonce": "0x51",
        "chainId": "0x4268"
      },
      "additionalContracts": [],
      "isFixedGasLimit": false
    },
    {
      "hash": "0xb13a0f92c5d39a66f8416d3158a4d88d0679fd596b2e213bbad86e1b7d70df17",
      "transactionType": "CALL",
      "contractName": "BoxV2",
      "contractAddress": "0xdb7fc6283f62dbabc5ec33f488c1570e508f76d4",
      "function": "initialize(uint256)",
      "arguments": [
        "42"
      ],
      "transaction": {
        "from": "0x200357f6778329a7e8a75ba0f1e01a641f3428ee",
        "to": "0xdb7fc6283f62dbabc5ec33f488c1570e508f76d4",
        "gas": "0x16323",
        "value": "0x0",
        "input": "0xfe4b84df000000000000000000000000000000000000000000000000000000000000002a",
        "nonce": "0x52",
        "chainId": "0x4268"
      },
      "additionalContracts": [],
      "isFixedGasLimit": false
    }
  ],
  "receipts": [
    {
      "status": "0x1",
      "cumulativeGasUsed": "0x1f5e1d",
      "logs": [],
      "logsBloom": "0x00000000000000000000000000000000000000000000000000000000000000000000000000000000000000000000000000000000000000000000000000000000000000000000000000000000000000000000000000000000000000000000000000000000000000000000000000000000000000000000000000000000000000000000000000000000000000000000000000000000000000000000000000000000000000000000000000000000000000000000000000000000000000000000000000000000000000000000000000000000000000000000000000000000000000000000000000000000000000000000000000000000000000000000000000000000",
      "type": "0x2",
      "transactionHash": "0xda4b7a16893ada67f7f7ba40ee3bfa05094cf684410f1977de24a18ddaf743cb",
      "transactionIndex": "0xf",
      "blockHash": "0xf4a85472b68ab6309f508b44f5274fb4fd4f0f29f4b2ee8f6b655acfd0c0b993",
      "blockNumber": "0x226ab8",
      "gasUsed": "0x2478d",
      "effectiveGasPrice": "0x24400169",
      "from": "0x200357f6778329a7e8a75ba0f1e01a641f3428ee",
      "to": null,
      "contractAddress": "0xdb7fc6283f62dbabc5ec33f488c1570e508f76d4"
    },
    {
      "status": "0x1",
      "cumulativeGasUsed": "0x325cff",
      "logs": [],
      "logsBloom": "0x00000000000000000000000000000000000000000000000000000000000000000000000000000000000000000000000000000000000000000000000000000000000000000000000000000000000000000000000000000000000000000000000000000000000000000000000000000000000000000000000000000000000000000000000000000000000000000000000000000000000000000000000000000000000000000000000000000000000000000000000000000000000000000000000000000000000000000000000000000000000000000000000000000000000000000000000000000000000000000000000000000000000000000000000000000000",
      "type": "0x2",
      "transactionHash": "0xb13a0f92c5d39a66f8416d3158a4d88d0679fd596b2e213bbad86e1b7d70df17",
      "transactionIndex": "0x11",
      "blockHash": "0xf4a85472b68ab6309f508b44f5274fb4fd4f0f29f4b2ee8f6b655acfd0c0b993",
      "blockNumber": "0x226ab8",
      "gasUsed": "0x1011e",
      "effectiveGasPrice": "0x24400169",
      "from": "0x200357f6778329a7e8a75ba0f1e01a641f3428ee",
      "to": "0xdb7fc6283f62dbabc5ec33f488c1570e508f76d4",
      "contractAddress": null
    }
  ],
  "libraries": [],
  "pending": [],
  "returns": {},
  "timestamp": 1725278022,
  "chain": 17000,
  "commit": "cab87d7"
}