{
  "transactions": [
    {
      "hash": "0x68233eb887ac6506d4282ddfc82accc39fddd041eb686e16411725e1da61ff71",
      "transactionType": "CREATE",
      "contractName": "BoxV2",
      "contractAddress": "0xc6c5773679c4b517f788c194caa678102c9eccc4",
      "function": null,
      "arguments": null,
      "transaction": {
        "from": "0x200357f6778329a7e8a75ba0f1e01a641f3428ee",
        "gas": "0x2f671",
        "value": "0x0",
        "input": "0x6080604052348015600f57600080fd5b506101bd8061001f6000396000f3fe608060405234801561001057600080fd5b506004361061004c5760003560e01c80632e64cec1146100515780636057361d14610067578063ca77ab651461007c578063fe4b84df14610084575b600080fd5b6000545b60405190815260200160405180910390f35b61007a610075366004610143565b610097565b005b6100556100d2565b61007a610092366004610143565b6100e5565b60008190556040518181527f93fe6d397c74fdf1402a8b72e47b68512f0510d7b98a4bc4cbdf6ac7108b3c599060200160405180910390a150565b600080546100e0908061015c565b905090565b60015460ff16156101325760405162461bcd60e51b8152602060048201526013602482015272105b1c9958591e481a5b9a5d1a585b1a5e9959606a1b604482015260640160405180910390fd5b6000556001805460ff191681179055565b60006020828403121561015557600080fd5b5035919050565b808202811582820484141761018157634e487b7160e01b600052601160045260246000fd5b9291505056fea26469706673582212208085b10cabdc718c5625bcbb9a2d557eb604c50c980cc512168421a97e4ff4ad64736f6c634300081a0033",
        "nonce": "0x45",
        "chainId": "0x4268"
      },
      "additionalContracts": [],
      "isFixedGasLimit": false
    },
    {
      "hash": "0xaecb614458682875d0ec13f4dd27677f7d1b0a7d186a704c017afd85ddee4807",
      "transactionType": "CALL",
      "contractName": "BoxV2",
      "contractAddress": "0xc6c5773679c4b517f788c194caa678102c9eccc4",
      "function": "initialize(uint256)",
      "arguments": [
        "42"
      ],
      "transaction": {
        "from": "0x200357f6778329a7e8a75ba0f1e01a641f3428ee",
        "to": "0xc6c5773679c4b517f788c194caa678102c9eccc4",
        "gas": "0x16323",
        "value": "0x0",
        "input": "0xfe4b84df000000000000000000000000000000000000000000000000000000000000002a",
        "nonce": "0x46",
        "chainId": "0x4268"
      },
      "additionalContracts": [],
      "isFixedGasLimit": false
    }
  ],
  "receipts": [
    {
      "status": "0x1",
      "cumulativeGasUsed": "0x12c7ea",
      "logs": [],
      "logsBloom": "0x00000000000000000000000000000000000000000000000000000000000000000000000000000000000000000000000000000000000000000000000000000000000000000000000000000000000000000000000000000000000000000000000000000000000000000000000000000000000000000000000000000000000000000000000000000000000000000000000000000000000000000000000000000000000000000000000000000000000000000000000000000000000000000000000000000000000000000000000000000000000000000000000000000000000000000000000000000000000000000000000000000000000000000000000000000000",
      "type": "0x2",
      "transactionHash": "0x68233eb887ac6506d4282ddfc82accc39fddd041eb686e16411725e1da61ff71",
      "transactionIndex": "0x7",
      "blockHash": "0xec60d452144cd16c04fff140e0979d73cac4adf5ce374cf7feb6ea2cc60f963c",
      "blockNumber": "0x225922",
      "gasUsed": "0x24789",
      "effectiveGasPrice": "0x3b9aca07",
      "from": "0x200357f6778329a7e8a75ba0f1e01a641f3428ee",
      "to": null,
      "contractAddress": "0xc6c5773679c4b517f788c194caa678102c9eccc4"
    },
    {
      "status": "0x1",
      "cumulativeGasUsed": "0x13c908",
      "logs": [],
      "logsBloom": "0x00000000000000000000000000000000000000000000000000000000000000000000000000000000000000000000000000000000000000000000000000000000000000000000000000000000000000000000000000000000000000000000000000000000000000000000000000000000000000000000000000000000000000000000000000000000000000000000000000000000000000000000000000000000000000000000000000000000000000000000000000000000000000000000000000000000000000000000000000000000000000000000000000000000000000000000000000000000000000000000000000000000000000000000000000000000",
      "type": "0x2",
      "transactionHash": "0xaecb614458682875d0ec13f4dd27677f7d1b0a7d186a704c017afd85ddee4807",
      "transactionIndex": "0x8",
      "blockHash": "0xec60d452144cd16c04fff140e0979d73cac4adf5ce374cf7feb6ea2cc60f963c",
      "blockNumber": "0x225922",
      "gasUsed": "0x1011e",
      "effectiveGasPrice": "0x3b9aca07",
      "from": "0x200357f6778329a7e8a75ba0f1e01a641f3428ee",
      "to": "0xc6c5773679c4b517f788c194caa678102c9eccc4",
      "contractAddress": null
    }
  ],
  "libraries": [],
  "pending": [],
  "returns": {},
  "timestamp": 1725218624,
  "chain": 17000,
  "commit": "64d7f9d"
}