{
  "transactions": [
    {
      "hash": "0xfcbc09c7b91cf3ae523a0e6c75286ba32bd37e2dece10dbeaa09eb9ea268bde2",
      "transactionType": "CREATE",
      "contractName": "Box",
      "contractAddress": "0x6ef910131d94788fa027931075126f76b1f2ce76",
      "function": null,
      "arguments": null,
      "transaction": {
        "from": "0x200357f6778329a7e8a75ba0f1e01a641f3428ee",
        "gas": "0x29cd3",
        "value": "0x0",
        "input": "0x608060405234801561001057600080fd5b5061016b806100206000396000f3fe608060405234801561001057600080fd5b50600436106100415760003560e01c80632e64cec1146100465780636057361d1461005b578063fe4b84df14610070575b600080fd5b60005460405190815260200160405180910390f35b61006e61006936600461011c565b610083565b005b61006e61007e36600461011c565b6100be565b60008190556040518181527f93fe6d397c74fdf1402a8b72e47b68512f0510d7b98a4bc4cbdf6ac7108b3c599060200160405180910390a150565b60015460ff161561010b5760405162461bcd60e51b8152602060048201526013602482015272105b1c9958591e481a5b9a5d1a585b1a5e9959606a1b604482015260640160405180910390fd5b6000556001805460ff191681179055565b60006020828403121561012e57600080fd5b503591905056fea2646970667358221220b91d1e59cabb178059f9a58dab003bef616ebde20569f3d114088f8153dc5bc864736f6c63430008180033",
        "nonce": "0x4f",
        "chainId": "0x4268"
      },
      "additionalContracts": [],
      "isFixedGasLimit": false
    },
    {
      "hash": "0x005b1e610028594ab0ad734f1feea174ca1de69ed9fe074f73ac9918f75c234b",
      "transactionType": "CALL",
      "contractName": "Box",
      "contractAddress": "0x6ef910131d94788fa027931075126f76b1f2ce76",
      "function": "initialize(uint256)",
      "arguments": [
        "42"
      ],
      "transaction": {
        "from": "0x200357f6778329a7e8a75ba0f1e01a641f3428ee",
        "to": "0x6ef910131d94788fa027931075126f76b1f2ce76",
        "gas": "0x16305",
        "value": "0x0",
        "input": "0xfe4b84df000000000000000000000000000000000000000000000000000000000000002a",
        "nonce": "0x50",
        "chainId": "0x4268"
      },
      "additionalContracts": [],
      "isFixedGasLimit": false
    }
  ],
  "receipts": [
    {
      "status": "0x1",
      "cumulativeGasUsed": "0x32c840",
      "logs": [],
      "logsBloom": "0x00000000000000000000000000000000000000000000000000000000000000000000000000000000000000000000000000000000000000000000000000000000000000000000000000000000000000000000000000000000000000000000000000000000000000000000000000000000000000000000000000000000000000000000000000000000000000000000000000000000000000000000000000000000000000000000000000000000000000000000000000000000000000000000000000000000000000000000000000000000000000000000000000000000000000000000000000000000000000000000000000000000000000000000000000000000",
      "type": "0x2",
      "transactionHash": "0xfcbc09c7b91cf3ae523a0e6c75286ba32bd37e2dece10dbeaa09eb9ea268bde2",
      "transactionIndex": "0x10",
      "blockHash": "0x3015ab5633df219f6f02351271d806be33283df63c440506204e4a6358ee1571",
      "blockNumber": "0x226835",
      "gasUsed": "0x20295",
      "effectiveGasPrice": "0x366648ef",
      "from": "0x200357f6778329a7e8a75ba0f1e01a641f3428ee",
      "to": null,
      "contractAddress": "0x6ef910131d94788fa027931075126f76b1f2ce76"
    },
    {
      "status": "0x1",
      "cumulativeGasUsed": "0x393238",
      "logs": [],
      "logsBloom": "0x00000000000000000000000000000000000000000000000000000000000000000000000000000000000000000000000000000000000000000000000000000000000000000000000000000000000000000000000000000000000000000000000000000000000000000000000000000000000000000000000000000000000000000000000000000000000000000000000000000000000000000000000000000000000000000000000000000000000000000000000000000000000000000000000000000000000000000000000000000000000000000000000000000000000000000000000000000000000000000000000000000000000000000000000000000000",
      "type": "0x2",
      "transactionHash": "0x005b1e610028594ab0ad734f1feea174ca1de69ed9fe074f73ac9918f75c234b",
      "transactionIndex": "0x15",
      "blockHash": "0x3015ab5633df219f6f02351271d806be33283df63c440506204e4a6358ee1571",
      "blockNumber": "0x226835",
      "gasUsed": "0x10108",
      "effectiveGasPrice": "0x366648ef",
      "from": "0x200357f6778329a7e8a75ba0f1e01a641f3428ee",
      "to": "0x6ef910131d94788fa027931075126f76b1f2ce76",
      "contractAddress": null
    }
  ],
  "libraries": [],
  "pending": [],
  "returns": {},
  "timestamp": 1725269583,
  "chain": 17000,
  "commit": "5456185"
}